{
  "contractName": "Dice",
  "abi": [
    {
      "inputs": [],
      "payable": false,
      "stateMutability": "nonpayable",
      "type": "constructor"
    },
    {
      "anonymous": false,
      "inputs": [
        {
          "indexed": false,
          "name": "s",
          "type": "string"
        }
      ],
      "name": "LogS",
      "type": "event"
    },
    {
      "anonymous": false,
      "inputs": [
        {
          "indexed": false,
          "name": "s",
          "type": "address"
        }
      ],
      "name": "LogA",
      "type": "event"
    },
    {
      "anonymous": false,
      "inputs": [
        {
          "indexed": false,
          "name": "a",
          "type": "uint256"
        }
      ],
      "name": "Log",
      "type": "event"
    },
    {
      "anonymous": false,
      "inputs": [
        {
          "indexed": false,
          "name": "addr",
          "type": "address"
        },
        {
          "indexed": false,
          "name": "res",
          "type": "bool"
        }
      ],
      "name": "RollResult",
      "type": "event"
    },
    {
      "constant": false,
      "inputs": [],
      "name": "roll",
      "outputs": [],
      "payable": true,
      "stateMutability": "payable",
      "type": "function"
    }
  ],
  "bytecode": "0x6080604052348015600f57600080fd5b50336000806101000a81548173ffffffffffffffffffffffffffffffffffffffff021916908373ffffffffffffffffffffffffffffffffffffffff1602179055506101888061005f6000396000f300608060405260043610610041576000357c0100000000000000000000000000000000000000000000000000000000900463ffffffff168063cd5e3c5d14610046575b600080fd5b61004e610050565b005b7f909c57d5c6ac08245cf2a6de3900e2b868513fa59099b92b27d8db823d92df9c346040518082815260200191505060405180910390a17fc31a21de509d25fb89dc86d3585794427b2d7ed0f731830a9455d21a0c6b822c33604051808273ffffffffffffffffffffffffffffffffffffffff1673ffffffffffffffffffffffffffffffffffffffff16815260200191505060405180910390a17f7eb5f934fb45c1ff444dfca0cd1f18108f8f9ef1661d5f51c2693f05d097818f336001604051808373ffffffffffffffffffffffffffffffffffffffff1673ffffffffffffffffffffffffffffffffffffffff168152602001821515151581526020019250505060405180910390a15600a165627a7a72305820ae95af0b315565a008753a25c383ad385d51f3b39b184bcd65e8271c886fd30f0029",
  "source": "pragma solidity ^0.4.18;\n\n\n// This is just a simple example of a coin-like contract.\n// It is not standards compatible and cannot be expected to talk to other\n// coin/token contracts.\n\ncontract Dice {\n\n    event LogS(string s);\n    event LogA(address s);\n    event Log(uint a);\n    event RollResult(address addr, bool res);\n\n    address owner;\n\n    constructor() public {\n        owner = msg.sender;\n    }\n\n    function roll() public payable {\n        emit Log(msg.value);\n//        require(msg.value > 100);\n        emit LogA(msg.sender);\n        emit RollResult( msg.sender, true);\n\n    }\n\n}\n",
  "sourcePath": "/Users/lixianji/coding/chainboard/tron/react-starter/contracts/dice.sol",
  "compiler": {
    "name": "solc",
    "version": "0.4.24-develop.2018.8.28+commit.3ba0cdec.mod.Emscripten.clang"
  },
  "schemaVersion": "2.0.1",
  "updatedAt": "2018-11-24T18:55:45.059Z"
}